{
  "contractName": "DAO",
  "abi": [
    {
      "inputs": [
        {
          "internalType": "uint256",
          "name": "_quorum",
          "type": "uint256"
        }
      ],
      "stateMutability": "nonpayable",
      "type": "constructor"
    },
    {
      "anonymous": false,
      "inputs": [
        {
          "indexed": true,
          "internalType": "address",
          "name": "tokenOwner",
          "type": "address"
        },
        {
          "indexed": true,
          "internalType": "address",
          "name": "spender",
          "type": "address"
        },
        {
          "indexed": false,
          "internalType": "uint256",
          "name": "tokens",
          "type": "uint256"
        }
      ],
      "name": "Approval",
      "type": "event"
    },
    {
      "anonymous": false,
      "inputs": [
        {
          "indexed": false,
          "internalType": "address",
          "name": "investor",
          "type": "address"
        },
        {
          "indexed": false,
          "internalType": "uint256",
          "name": "value",
          "type": "uint256"
        },
        {
          "indexed": false,
          "internalType": "uint256",
          "name": "tokens",
          "type": "uint256"
        }
      ],
      "name": "Invest",
      "type": "event"
    },
    {
      "anonymous": false,
      "inputs": [
        {
          "indexed": true,
          "internalType": "address",
          "name": "from",
          "type": "address"
        },
        {
          "indexed": true,
          "internalType": "address",
          "name": "to",
          "type": "address"
        },
        {
          "indexed": false,
          "internalType": "uint256",
          "name": "tokens",
          "type": "uint256"
        }
      ],
      "name": "Transfer",
      "type": "event"
    },
    {
      "inputs": [
        {
          "internalType": "uint256",
          "name": "",
          "type": "uint256"
        }
      ],
      "name": "Proposals",
      "outputs": [
        {
          "internalType": "uint256",
          "name": "id",
          "type": "uint256"
        },
        {
          "internalType": "string",
          "name": "name",
          "type": "string"
        },
        {
          "internalType": "uint256",
          "name": "votes",
          "type": "uint256"
        },
        {
          "internalType": "uint256",
          "name": "end",
          "type": "uint256"
        },
        {
          "internalType": "bool",
          "name": "executed",
          "type": "bool"
        }
      ],
      "stateMutability": "view",
      "type": "function"
    },
    {
      "inputs": [],
      "name": "admin",
      "outputs": [
        {
          "internalType": "address",
          "name": "",
          "type": "address"
        }
      ],
      "stateMutability": "view",
      "type": "function"
    },
    {
      "inputs": [
        {
          "internalType": "address",
          "name": "tokenOwner",
          "type": "address"
        },
        {
          "internalType": "address",
          "name": "spender",
          "type": "address"
        }
      ],
      "name": "allowance",
      "outputs": [
        {
          "internalType": "uint256",
          "name": "",
          "type": "uint256"
        }
      ],
      "stateMutability": "view",
      "type": "function"
    },
    {
      "inputs": [
        {
          "internalType": "address",
          "name": "spender",
          "type": "address"
        },
        {
          "internalType": "uint256",
          "name": "tokens",
          "type": "uint256"
        }
      ],
      "name": "approve",
      "outputs": [
        {
          "internalType": "bool",
          "name": "success",
          "type": "bool"
        }
      ],
      "stateMutability": "nonpayable",
      "type": "function"
    },
    {
      "inputs": [
        {
          "internalType": "address",
          "name": "tokenOwner",
          "type": "address"
        }
      ],
      "name": "balanceOf",
      "outputs": [
        {
          "internalType": "uint256",
          "name": "balance",
          "type": "uint256"
        }
      ],
      "stateMutability": "view",
      "type": "function"
    },
    {
      "inputs": [
        {
          "internalType": "address",
          "name": "",
          "type": "address"
        }
      ],
      "name": "balances",
      "outputs": [
        {
          "internalType": "uint256",
          "name": "",
          "type": "uint256"
        }
      ],
      "stateMutability": "view",
      "type": "function"
    },
    {
      "inputs": [],
      "name": "contributionEnd",
      "outputs": [
        {
          "internalType": "uint256",
          "name": "",
          "type": "uint256"
        }
      ],
      "stateMutability": "view",
      "type": "function"
    },
    {
      "inputs": [],
      "name": "decimals",
      "outputs": [
        {
          "internalType": "uint256",
          "name": "",
          "type": "uint256"
        }
      ],
      "stateMutability": "view",
      "type": "function"
    },
    {
      "inputs": [],
      "name": "deposit",
      "outputs": [
        {
          "internalType": "address payable",
          "name": "",
          "type": "address"
        }
      ],
      "stateMutability": "view",
      "type": "function"
    },
    {
      "inputs": [],
      "name": "founder",
      "outputs": [
        {
          "internalType": "address",
          "name": "",
          "type": "address"
        }
      ],
      "stateMutability": "view",
      "type": "function"
    },
    {
      "inputs": [],
      "name": "getCurrentState",
      "outputs": [
        {
          "internalType": "enum zongICO.State",
          "name": "",
          "type": "uint8"
        }
      ],
      "stateMutability": "view",
      "type": "function"
    },
    {
      "inputs": [],
      "name": "halt",
      "outputs": [],
      "stateMutability": "nonpayable",
      "type": "function"
    },
    {
      "inputs": [],
      "name": "hardCap",
      "outputs": [
        {
          "internalType": "uint256",
          "name": "",
          "type": "uint256"
        }
      ],
      "stateMutability": "view",
      "type": "function"
    },
    {
      "inputs": [],
      "name": "icoState",
      "outputs": [
        {
          "internalType": "enum zongICO.State",
          "name": "",
          "type": "uint8"
        }
      ],
      "stateMutability": "view",
      "type": "function"
    },
    {
      "inputs": [],
      "name": "invest",
      "outputs": [
        {
          "internalType": "bool",
          "name": "",
          "type": "bool"
        }
      ],
      "stateMutability": "payable",
      "type": "function"
    },
    {
      "inputs": [],
      "name": "maxInvestment",
      "outputs": [
        {
          "internalType": "uint256",
          "name": "",
          "type": "uint256"
        }
      ],
      "stateMutability": "view",
      "type": "function"
    },
    {
      "inputs": [],
      "name": "minInvestment",
      "outputs": [
        {
          "internalType": "uint256",
          "name": "",
          "type": "uint256"
        }
      ],
      "stateMutability": "view",
      "type": "function"
    },
    {
      "inputs": [],
      "name": "name",
      "outputs": [
        {
          "internalType": "string",
          "name": "",
          "type": "string"
        }
      ],
      "stateMutability": "view",
      "type": "function"
    },
    {
      "inputs": [],
      "name": "nextProposalId",
      "outputs": [
        {
          "internalType": "uint256",
          "name": "",
          "type": "uint256"
        }
      ],
      "stateMutability": "view",
      "type": "function"
    },
    {
      "inputs": [],
      "name": "quorum",
      "outputs": [
        {
          "internalType": "uint256",
          "name": "",
          "type": "uint256"
        }
      ],
      "stateMutability": "view",
      "type": "function"
    },
    {
      "inputs": [],
      "name": "raisedAmount",
      "outputs": [
        {
          "internalType": "uint256",
          "name": "",
          "type": "uint256"
        }
      ],
      "stateMutability": "view",
      "type": "function"
    },
    {
      "inputs": [],
      "name": "resume",
      "outputs": [],
      "stateMutability": "nonpayable",
      "type": "function"
    },
    {
      "inputs": [],
      "name": "saleEnd",
      "outputs": [
        {
          "internalType": "uint256",
          "name": "",
          "type": "uint256"
        }
      ],
      "stateMutability": "view",
      "type": "function"
    },
    {
      "inputs": [],
      "name": "saleStart",
      "outputs": [
        {
          "internalType": "uint256",
          "name": "",
          "type": "uint256"
        }
      ],
      "stateMutability": "view",
      "type": "function"
    },
    {
      "inputs": [],
      "name": "symbol",
      "outputs": [
        {
          "internalType": "string",
          "name": "",
          "type": "string"
        }
      ],
      "stateMutability": "view",
      "type": "function"
    },
    {
      "inputs": [],
      "name": "tokenTradeStart",
      "outputs": [
        {
          "internalType": "uint256",
          "name": "",
          "type": "uint256"
        }
      ],
      "stateMutability": "view",
      "type": "function"
    },
    {
      "inputs": [],
      "name": "totalShares",
      "outputs": [
        {
          "internalType": "uint256",
          "name": "",
          "type": "uint256"
        }
      ],
      "stateMutability": "view",
      "type": "function"
    },
    {
      "inputs": [],
      "name": "totalSupply",
      "outputs": [
        {
          "internalType": "uint256",
          "name": "",
          "type": "uint256"
        }
      ],
      "stateMutability": "view",
      "type": "function"
    },
    {
      "inputs": [
        {
          "internalType": "address",
          "name": "to",
          "type": "address"
        },
        {
          "internalType": "uint256",
          "name": "tokens",
          "type": "uint256"
        }
      ],
      "name": "transfer",
      "outputs": [
        {
          "internalType": "bool",
          "name": "success",
          "type": "bool"
        }
      ],
      "stateMutability": "nonpayable",
      "type": "function"
    },
    {
      "inputs": [
        {
          "internalType": "address",
          "name": "from",
          "type": "address"
        },
        {
          "internalType": "address",
          "name": "to",
          "type": "address"
        },
        {
          "internalType": "uint256",
          "name": "tokens",
          "type": "uint256"
        }
      ],
      "name": "transferFrom",
      "outputs": [
        {
          "internalType": "bool",
          "name": "success",
          "type": "bool"
        }
      ],
      "stateMutability": "nonpayable",
      "type": "function"
    },
    {
      "inputs": [],
      "name": "voteTime",
      "outputs": [
        {
          "internalType": "uint256",
          "name": "",
          "type": "uint256"
        }
      ],
      "stateMutability": "view",
      "type": "function"
    },
    {
      "inputs": [
        {
          "internalType": "address",
          "name": "",
          "type": "address"
        },
        {
          "internalType": "uint256",
          "name": "",
          "type": "uint256"
        }
      ],
      "name": "votes",
      "outputs": [
        {
          "internalType": "bool",
          "name": "",
          "type": "bool"
        }
      ],
      "stateMutability": "view",
      "type": "function"
    },
    {
      "inputs": [],
      "name": "zongInCirculation",
      "outputs": [
        {
          "internalType": "uint256",
          "name": "",
          "type": "uint256"
        }
      ],
      "stateMutability": "view",
      "type": "function"
    },
    {
      "inputs": [
        {
          "internalType": "address",
          "name": "",
          "type": "address"
        }
      ],
      "name": "zongTokenHolder",
      "outputs": [
        {
          "internalType": "bool",
          "name": "",
          "type": "bool"
        }
      ],
      "stateMutability": "view",
      "type": "function"
    },
    {
      "stateMutability": "payable",
      "type": "receive"
    },
    {
      "inputs": [],
      "name": "contribute",
      "outputs": [],
      "stateMutability": "payable",
      "type": "function"
    },
    {
      "inputs": [
        {
          "internalType": "uint256",
          "name": "amount",
          "type": "uint256"
        },
        {
          "internalType": "address",
          "name": "to",
          "type": "address"
        }
      ],
      "name": "transferZong",
      "outputs": [],
      "stateMutability": "nonpayable",
      "type": "function"
    },
    {
      "inputs": [
        {
          "internalType": "string",
          "name": "name",
          "type": "string"
        }
      ],
      "name": "createProposal",
      "outputs": [],
      "stateMutability": "nonpayable",
      "type": "function"
    },
    {
      "inputs": [
        {
          "internalType": "uint256",
          "name": "proposalId",
          "type": "uint256"
        }
      ],
      "name": "vote",
      "outputs": [],
      "stateMutability": "nonpayable",
      "type": "function"
    },
    {
      "inputs": [
        {
          "internalType": "uint256",
          "name": "proposalId",
          "type": "uint256"
        }
      ],
      "name": "hasVoted",
      "outputs": [
        {
          "internalType": "bool",
          "name": "",
          "type": "bool"
        }
      ],
      "stateMutability": "view",
      "type": "function"
    },
    {
      "inputs": [
        {
          "internalType": "uint256",
          "name": "proposalId",
          "type": "uint256"
        }
      ],
      "name": "executeProposal",
      "outputs": [],
      "stateMutability": "view",
      "type": "function"
    },
    {
      "inputs": [],
      "name": "currentTime",
      "outputs": [
        {
          "internalType": "uint256",
          "name": "",
          "type": "uint256"
        }
      ],
      "stateMutability": "view",
      "type": "function"
    }
  ],
  "bytecode": "0x60806040526040518060400160405280600981526020017f5a6f6e67546f6b656e00000000000000000000000000000000000000000000008152506000908051906020019062000051929190620002fc565b506040518060400160405280600481526020017f5a4f4e4700000000000000000000000000000000000000000000000000000000815250600190805190602001906200009f929190620002fc565b50600060025566038d7ea4c68000600955681043561a8829300000600a5542600c5562093a8042620000d29190620003e5565b600d5562093a80600d54620000e89190620003e5565b600e55674563918244f40000600f5567016345785d8a00006010553480156200011057600080fd5b50604051620029fb380380620029fb833981810160405281019062000136919062000478565b33620f424060038190555033600460006101000a81548173ffffffffffffffffffffffffffffffffffffffff021916908373ffffffffffffffffffffffffffffffffffffffff16021790555060035460056000600460009054906101000a900473ffffffffffffffffffffffffffffffffffffffff1673ffffffffffffffffffffffffffffffffffffffff1673ffffffffffffffffffffffffffffffffffffffff1681526020019081526020016000208190555080600860006101000a81548173ffffffffffffffffffffffffffffffffffffffff021916908373ffffffffffffffffffffffffffffffffffffffff16021790555033600760006101000a81548173ffffffffffffffffffffffffffffffffffffffff021916908373ffffffffffffffffffffffffffffffffffffffff1602179055506000601160006101000a81548160ff02191690836003811115620002955762000294620004aa565b5b021790555050600081118015620002ac5750600581105b620002ee576040517f08c379a0000000000000000000000000000000000000000000000000000000008152600401620002e5906200053a565b60405180910390fd5b80601a8190555050620005c1565b8280546200030a906200058b565b90600052602060002090601f0160209004810192826200032e57600085556200037a565b82601f106200034957805160ff19168380011785556200037a565b828001600101855582156200037a579182015b82811115620003795782518255916020019190600101906200035c565b5b5090506200038991906200038d565b5090565b5b80821115620003a85760008160009055506001016200038e565b5090565b6000819050919050565b7f4e487b7100000000000000000000000000000000000000000000000000000000600052601160045260246000fd5b6000620003f282620003ac565b9150620003ff83620003ac565b9250827fffffffffffffffffffffffffffffffffffffffffffffffffffffffffffffffff03821115620004375762000436620003b6565b5b828201905092915050565b600080fd5b6200045281620003ac565b81146200045e57600080fd5b50565b600081519050620004728162000447565b92915050565b60006020828403121562000491576200049062000442565b5b6000620004a18482850162000461565b91505092915050565b7f4e487b7100000000000000000000000000000000000000000000000000000000600052602160045260246000fd5b600082825260208201905092915050565b7f4d617820436f6e7472696275746f727320726561636865640000000000000000600082015250565b600062000522601883620004d9565b91506200052f82620004ea565b602082019050919050565b60006020820190508181036000830152620005558162000513565b9050919050565b7f4e487b7100000000000000000000000000000000000000000000000000000000600052602260045260246000fd5b60006002820490506001821680620005a457607f821691505b60208210811415620005bb57620005ba6200055c565b5b50919050565b61242a80620005d16000396000f3fe6080604052600436106102495760003560e01c80638ac2c68011610139578063d0e30db0116100b6578063dd62ed3e1161007a578063dd62ed3e14610882578063e8b5e51f146108bf578063ecca031f146108dd578063f851a4401461091a578063fa16e94414610945578063fb86a4041461097057610259565b8063d0e30db0146107b6578063d151b516146107e1578063d18e81b31461080c578063d1dbe7d814610837578063d7bb99ba1461087857610259565b8063ab0bcc41116100fd578063ab0bcc41146106df578063bcf93dd61461070a578063c10b935814610735578063c59ee1dc14610760578063cc9ba5831461078b57610259565b80638ac2c680146105e657806395d89b41146106115780639f2524ee1461063c578063a30ae2f714610679578063a9059cbb146106a257610259565b806327e235e3116101c757806344f387561161018b57806344f387561461051357806349c2a1a61461053e5780634d853ee5146105675780635ed7ca5b1461059257806370a08231146105a957610259565b806327e235e31461042a5780632ab09d1414610467578063313ce56714610492578063378aa701146104bd5780633a98ef39146104e857610259565b80630d61b5191161020e5780630d61b5191461033157806316deb6011461035a5780631703a0181461039757806318160ddd146103c257806323b872dd146103ed57610259565b80622e13161461025e5780630121b93f14610289578063046f7da2146102b257806306fdde03146102c9578063095ea7b3146102f457610259565b366102595761025661099b565b50005b600080fd5b34801561026a57600080fd5b50610273610be1565b6040516102809190611c13565b60405180910390f35b34801561029557600080fd5b506102b060048036038101906102ab9190611c6e565b610be7565b005b3480156102be57600080fd5b506102c7610d33565b005b3480156102d557600080fd5b506102de610dba565b6040516102eb9190611d34565b60405180910390f35b34801561030057600080fd5b5061031b60048036038101906103169190611db4565b610e48565b6040516103289190611e0f565b60405180910390f35b34801561033d57600080fd5b5061035860048036038101906103539190611c6e565b610f93565b005b34801561036657600080fd5b50610381600480360381019061037c9190611e2a565b610fe5565b60405161038e9190611e0f565b60405180910390f35b3480156103a357600080fd5b506103ac611005565b6040516103b99190611c13565b60405180910390f35b3480156103ce57600080fd5b506103d761100b565b6040516103e49190611c13565b60405180910390f35b3480156103f957600080fd5b50610414600480360381019061040f9190611e57565b611011565b6040516104219190611e0f565b60405180910390f35b34801561043657600080fd5b50610451600480360381019061044c9190611e2a565b611297565b60405161045e9190611c13565b60405180910390f35b34801561047357600080fd5b5061047c6112af565b6040516104899190611c13565b60405180910390f35b34801561049e57600080fd5b506104a76112b5565b6040516104b49190611c13565b60405180910390f35b3480156104c957600080fd5b506104d26112bb565b6040516104df9190611f21565b60405180910390f35b3480156104f457600080fd5b506104fd61133e565b60405161050a9190611c13565b60405180910390f35b34801561051f57600080fd5b50610528611344565b6040516105359190611f21565b60405180910390f35b34801561054a57600080fd5b5061056560048036038101906105609190612071565b611357565b005b34801561057357600080fd5b5061057c611417565b60405161058991906120c9565b60405180910390f35b34801561059e57600080fd5b506105a761143d565b005b3480156105b557600080fd5b506105d060048036038101906105cb9190611e2a565b6114c4565b6040516105dd9190611c13565b60405180910390f35b3480156105f257600080fd5b506105fb61150d565b6040516106089190611c13565b60405180910390f35b34801561061d57600080fd5b50610626611513565b6040516106339190611d34565b60405180910390f35b34801561064857600080fd5b50610663600480360381019061065e9190611db4565b6115a1565b6040516106709190611e0f565b60405180910390f35b34801561068557600080fd5b506106a0600480360381019061069b91906120e4565b6115d0565b005b3480156106ae57600080fd5b506106c960048036038101906106c49190611db4565b611724565b6040516106d69190611e0f565b60405180910390f35b3480156106eb57600080fd5b506106f461188d565b6040516107019190611c13565b60405180910390f35b34801561071657600080fd5b5061071f611893565b60405161072c9190611c13565b60405180910390f35b34801561074157600080fd5b5061074a611899565b6040516107579190611c13565b60405180910390f35b34801561076c57600080fd5b5061077561189f565b6040516107829190611c13565b60405180910390f35b34801561079757600080fd5b506107a06118a5565b6040516107ad9190611c13565b60405180910390f35b3480156107c257600080fd5b506107cb6118ab565b6040516107d89190612145565b60405180910390f35b3480156107ed57600080fd5b506107f66118d1565b6040516108039190611c13565b60405180910390f35b34801561081857600080fd5b506108216118d7565b60405161082e9190611c13565b60405180910390f35b34801561084357600080fd5b5061085e60048036038101906108599190611c6e565b6118df565b60405161086f959493929190612160565b60405180910390f35b6108806119aa565b005b34801561088e57600080fd5b506108a960048036038101906108a491906121ba565b611a26565b6040516108b69190611c13565b60405180910390f35b6108c761099b565b6040516108d49190611e0f565b60405180910390f35b3480156108e957600080fd5b5061090460048036038101906108ff9190611c6e565b611aad565b6040516109119190611e0f565b60405180910390f35b34801561092657600080fd5b5061092f611b25565b60405161093c91906120c9565b60405180910390f35b34801561095157600080fd5b5061095a611b4b565b6040516109679190611c13565b60405180910390f35b34801561097c57600080fd5b50610985611b51565b6040516109929190611c13565b60405180910390f35b60006109a56112bb565b601160006101000a81548160ff021916908360038111156109c9576109c8611eaa565b5b0217905550600160038111156109e2576109e1611eaa565b5b601160009054906101000a900460ff166003811115610a0457610a03611eaa565b5b14610a0e57600080fd5b6010543410158015610a225750600f543411155b610a2b57600080fd5b34600b6000828254610a3d9190612229565b92505081905550600a54600b541115610a5557600080fd5b600060095434610a6591906122ae565b905080600560003373ffffffffffffffffffffffffffffffffffffffff1673ffffffffffffffffffffffffffffffffffffffff1681526020019081526020016000206000828254610ab69190612229565b925050819055508060056000600460009054906101000a900473ffffffffffffffffffffffffffffffffffffffff1673ffffffffffffffffffffffffffffffffffffffff1673ffffffffffffffffffffffffffffffffffffffff1681526020019081526020016000206000828254610b2e91906122df565b92505081905550600860009054906101000a900473ffffffffffffffffffffffffffffffffffffffff1673ffffffffffffffffffffffffffffffffffffffff166108fc349081150290604051600060405180830381858888f19350505050158015610b9d573d6000803e3d6000fd5b507f4ae4bd7655e0d350876a23cd90c4227b13db560e34435c6a488150a9c844bf5f333483604051610bd193929190612313565b60405180910390a1600191505090565b600f5481565b600060146000838152602001908152602001600020905060001515601360003373ffffffffffffffffffffffffffffffffffffffff1673ffffffffffffffffffffffffffffffffffffffff168152602001908152602001600020600084815260200190815260200160002060009054906101000a900460ff16151514610c6c57600080fd5b6001601360003373ffffffffffffffffffffffffffffffffffffffff1673ffffffffffffffffffffffffffffffffffffffff168152602001908152602001600020600084815260200190815260200160002060006101000a81548160ff021916908315150217905550600560003373ffffffffffffffffffffffffffffffffffffffff1673ffffffffffffffffffffffffffffffffffffffff16815260200190815260200160002054816002016000828254610d289190612229565b925050819055505050565b600760009054906101000a900473ffffffffffffffffffffffffffffffffffffffff1673ffffffffffffffffffffffffffffffffffffffff163373ffffffffffffffffffffffffffffffffffffffff1614610d8d57600080fd5b6001601160006101000a81548160ff02191690836003811115610db357610db2611eaa565b5b0217905550565b60008054610dc790612379565b80601f0160208091040260200160405190810160405280929190818152602001828054610df390612379565b8015610e405780601f10610e1557610100808354040283529160200191610e40565b820191906000526020600020905b815481529060010190602001808311610e2357829003601f168201915b505050505081565b600081600560003373ffffffffffffffffffffffffffffffffffffffff1673ffffffffffffffffffffffffffffffffffffffff168152602001908152602001600020541015610e9657600080fd5b60008211610ea357600080fd5b81600660003373ffffffffffffffffffffffffffffffffffffffff1673ffffffffffffffffffffffffffffffffffffffff16815260200190815260200160002060008573ffffffffffffffffffffffffffffffffffffffff1673ffffffffffffffffffffffffffffffffffffffff168152602001908152602001600020819055508273ffffffffffffffffffffffffffffffffffffffff163373ffffffffffffffffffffffffffffffffffffffff167f8c5be1e5ebec7d5bd14f71427d1e84f3dd0314c0f7b2291e5b200ac8c7c3b92584604051610f819190611c13565b60405180910390a36001905092915050565b6000601460008381526020019081526020016000209050600015158160040160009054906101000a900460ff16151514610fcc57600080fd5b600115158160040160009054906101000a905050505050565b60126020528060005260406000206000915054906101000a900460ff1681565b601a5481565b60035481565b600081600660008673ffffffffffffffffffffffffffffffffffffffff1673ffffffffffffffffffffffffffffffffffffffff16815260200190815260200160002060008573ffffffffffffffffffffffffffffffffffffffff1673ffffffffffffffffffffffffffffffffffffffff16815260200190815260200160002054101561109c57600080fd5b81600560008673ffffffffffffffffffffffffffffffffffffffff1673ffffffffffffffffffffffffffffffffffffffff1681526020019081526020016000205410156110e857600080fd5b81600560008673ffffffffffffffffffffffffffffffffffffffff1673ffffffffffffffffffffffffffffffffffffffff168152602001908152602001600020600082825461113791906122df565b9250508190555081600560008573ffffffffffffffffffffffffffffffffffffffff1673ffffffffffffffffffffffffffffffffffffffff168152602001908152602001600020600082825461118d9190612229565b9250508190555081600660008673ffffffffffffffffffffffffffffffffffffffff1673ffffffffffffffffffffffffffffffffffffffff16815260200190815260200160002060008573ffffffffffffffffffffffffffffffffffffffff1673ffffffffffffffffffffffffffffffffffffffff168152602001908152602001600020600082825461122091906122df565b925050819055508273ffffffffffffffffffffffffffffffffffffffff168473ffffffffffffffffffffffffffffffffffffffff167fddf252ad1be2c89b69c2b068fc378daa952ba7f163c4a11628f55a4df523b3ef846040516112849190611c13565b60405180910390a3600190509392505050565b60056020528060005260406000206000915090505481565b60185481565b60025481565b60006003808111156112d0576112cf611eaa565b5b601160009054906101000a900460ff1660038111156112f2576112f1611eaa565b5b1415611301576003905061133b565b600c54421015611314576000905061133b565b600c5442101580156113285750600d544211155b15611336576001905061133b565b600290505b90565b60155481565b601160009054906101000a900460ff1681565b6040518060a001604052806018548152602001828152602001600081526020014260198190558152602001600015158152506014600060185481526020019081526020016000206000820151816000015560208201518160010190805190602001906113c4929190611b57565b50604082015181600201556060820151816003015560808201518160040160006101000a81548160ff0219169083151502179055509050506018600081548092919061140f906123ab565b919050555050565b600460009054906101000a900473ffffffffffffffffffffffffffffffffffffffff1681565b600760009054906101000a900473ffffffffffffffffffffffffffffffffffffffff1673ffffffffffffffffffffffffffffffffffffffff163373ffffffffffffffffffffffffffffffffffffffff161461149757600080fd5b6003601160006101000a81548160ff021916908360038111156114bd576114bc611eaa565b5b0217905550565b6000600560008373ffffffffffffffffffffffffffffffffffffffff1673ffffffffffffffffffffffffffffffffffffffff168152602001908152602001600020549050919050565b60105481565b6001805461152090612379565b80601f016020809104026020016040519081016040528092919081815260200182805461154c90612379565b80156115995780601f1061156e57610100808354040283529160200191611599565b820191906000526020600020905b81548152906001019060200180831161157c57829003601f168201915b505050505081565b60136020528160005260406000206020528060005260406000206000915091509054906101000a900460ff1681565b81600560003373ffffffffffffffffffffffffffffffffffffffff1673ffffffffffffffffffffffffffffffffffffffff16815260200190815260200160002054101561161c57600080fd5b81600560003373ffffffffffffffffffffffffffffffffffffffff1673ffffffffffffffffffffffffffffffffffffffff168152602001908152602001600020600082825461166b91906122df565b9250508190555081600560008373ffffffffffffffffffffffffffffffffffffffff1673ffffffffffffffffffffffffffffffffffffffff16815260200190815260200160002060008282546116c19190612229565b925050819055506001601260008373ffffffffffffffffffffffffffffffffffffffff1673ffffffffffffffffffffffffffffffffffffffff16815260200190815260200160002060006101000a81548160ff0219169083151502179055505050565b600081600560003373ffffffffffffffffffffffffffffffffffffffff1673ffffffffffffffffffffffffffffffffffffffff16815260200190815260200160002054101561177257600080fd5b81600560008573ffffffffffffffffffffffffffffffffffffffff1673ffffffffffffffffffffffffffffffffffffffff16815260200190815260200160002060008282546117c19190612229565b9250508190555081600560003373ffffffffffffffffffffffffffffffffffffffff1673ffffffffffffffffffffffffffffffffffffffff168152602001908152602001600020600082825461181791906122df565b925050819055508273ffffffffffffffffffffffffffffffffffffffff163373ffffffffffffffffffffffffffffffffffffffff167fddf252ad1be2c89b69c2b068fc378daa952ba7f163c4a11628f55a4df523b3ef8460405161187b9190611c13565b60405180910390a36001905092915050565b600c5481565b60195481565b600d5481565b600b5481565b600e5481565b600860009054906101000a900473ffffffffffffffffffffffffffffffffffffffff1681565b60175481565b600042905090565b601460205280600052604060002060009150905080600001549080600101805461190890612379565b80601f016020809104026020016040519081016040528092919081815260200182805461193490612379565b80156119815780601f1061195657610100808354040283529160200191611981565b820191906000526020600020905b81548152906001019060200180831161196457829003601f168201915b5050505050908060020154908060030154908060040160009054906101000a900460ff16905085565b6001601260003373ffffffffffffffffffffffffffffffffffffffff1673ffffffffffffffffffffffffffffffffffffffff16815260200190815260200160002060006101000a81548160ff021916908315150217905550611a0a61099b565b503460166000828254611a1d9190612229565b92505081905550565b6000600660008473ffffffffffffffffffffffffffffffffffffffff1673ffffffffffffffffffffffffffffffffffffffff16815260200190815260200160002060008373ffffffffffffffffffffffffffffffffffffffff1673ffffffffffffffffffffffffffffffffffffffff16815260200190815260200160002054905092915050565b6000601360003373ffffffffffffffffffffffffffffffffffffffff1673ffffffffffffffffffffffffffffffffffffffff168152602001908152602001600020600083815260200190815260200160002060009054906101000a900460ff1615611b1b5760019050611b20565b600090505b919050565b600760009054906101000a900473ffffffffffffffffffffffffffffffffffffffff1681565b60165481565b600a5481565b828054611b6390612379565b90600052602060002090601f016020900481019282611b855760008555611bcc565b82601f10611b9e57805160ff1916838001178555611bcc565b82800160010185558215611bcc579182015b82811115611bcb578251825591602001919060010190611bb0565b5b509050611bd99190611bdd565b5090565b5b80821115611bf6576000816000905550600101611bde565b5090565b6000819050919050565b611c0d81611bfa565b82525050565b6000602082019050611c286000830184611c04565b92915050565b6000604051905090565b600080fd5b600080fd5b611c4b81611bfa565b8114611c5657600080fd5b50565b600081359050611c6881611c42565b92915050565b600060208284031215611c8457611c83611c38565b5b6000611c9284828501611c59565b91505092915050565b600081519050919050565b600082825260208201905092915050565b60005b83811015611cd5578082015181840152602081019050611cba565b83811115611ce4576000848401525b50505050565b6000601f19601f8301169050919050565b6000611d0682611c9b565b611d108185611ca6565b9350611d20818560208601611cb7565b611d2981611cea565b840191505092915050565b60006020820190508181036000830152611d4e8184611cfb565b905092915050565b600073ffffffffffffffffffffffffffffffffffffffff82169050919050565b6000611d8182611d56565b9050919050565b611d9181611d76565b8114611d9c57600080fd5b50565b600081359050611dae81611d88565b92915050565b60008060408385031215611dcb57611dca611c38565b5b6000611dd985828601611d9f565b9250506020611dea85828601611c59565b9150509250929050565b60008115159050919050565b611e0981611df4565b82525050565b6000602082019050611e246000830184611e00565b92915050565b600060208284031215611e4057611e3f611c38565b5b6000611e4e84828501611d9f565b91505092915050565b600080600060608486031215611e7057611e6f611c38565b5b6000611e7e86828701611d9f565b9350506020611e8f86828701611d9f565b9250506040611ea086828701611c59565b9150509250925092565b7f4e487b7100000000000000000000000000000000000000000000000000000000600052602160045260246000fd5b60048110611eea57611ee9611eaa565b5b50565b6000819050611efb82611ed9565b919050565b6000611f0b82611eed565b9050919050565b611f1b81611f00565b82525050565b6000602082019050611f366000830184611f12565b92915050565b600080fd5b600080fd5b7f4e487b7100000000000000000000000000000000000000000000000000000000600052604160045260246000fd5b611f7e82611cea565b810181811067ffffffffffffffff82111715611f9d57611f9c611f46565b5b80604052505050565b6000611fb0611c2e565b9050611fbc8282611f75565b919050565b600067ffffffffffffffff821115611fdc57611fdb611f46565b5b611fe582611cea565b9050602081019050919050565b82818337600083830152505050565b600061201461200f84611fc1565b611fa6565b9050828152602081018484840111156120305761202f611f41565b5b61203b848285611ff2565b509392505050565b600082601f83011261205857612057611f3c565b5b8135612068848260208601612001565b91505092915050565b60006020828403121561208757612086611c38565b5b600082013567ffffffffffffffff8111156120a5576120a4611c3d565b5b6120b184828501612043565b91505092915050565b6120c381611d76565b82525050565b60006020820190506120de60008301846120ba565b92915050565b600080604083850312156120fb576120fa611c38565b5b600061210985828601611c59565b925050602061211a85828601611d9f565b9150509250929050565b600061212f82611d56565b9050919050565b61213f81612124565b82525050565b600060208201905061215a6000830184612136565b92915050565b600060a0820190506121756000830188611c04565b81810360208301526121878187611cfb565b90506121966040830186611c04565b6121a36060830185611c04565b6121b06080830184611e00565b9695505050505050565b600080604083850312156121d1576121d0611c38565b5b60006121df85828601611d9f565b92505060206121f085828601611d9f565b9150509250929050565b7f4e487b7100000000000000000000000000000000000000000000000000000000600052601160045260246000fd5b600061223482611bfa565b915061223f83611bfa565b9250827fffffffffffffffffffffffffffffffffffffffffffffffffffffffffffffffff03821115612274576122736121fa565b5b828201905092915050565b7f4e487b7100000000000000000000000000000000000000000000000000000000600052601260045260246000fd5b60006122b982611bfa565b91506122c483611bfa565b9250826122d4576122d361227f565b5b828204905092915050565b60006122ea82611bfa565b91506122f583611bfa565b925082821015612308576123076121fa565b5b828203905092915050565b600060608201905061232860008301866120ba565b6123356020830185611c04565b6123426040830184611c04565b949350505050565b7f4e487b7100000000000000000000000000000000000000000000000000000000600052602260045260246000fd5b6000600282049050600182168061239157607f821691505b602082108114156123a5576123a461234a565b5b50919050565b60006123b682611bfa565b91507fffffffffffffffffffffffffffffffffffffffffffffffffffffffffffffffff8214156123e9576123e86121fa565b5b60018201905091905056fea26469706673582212204a7b8a619e06c5e9e99ae59dc211b77731070f5f3a815d765a9ef40e2c6d594a64736f6c634300080b0033",
  "immutableReferences": {},
  "source": "// SPDX-License-Identifier: GPL-3.0\r\n\r\npragma solidity >=0.7.0 <0.9.0;\r\n\r\nimport \"./zongICO.sol\";\r\n\r\ncontract DAO is zongICO(payable(msg.sender)) {\r\n\r\n\r\n    /* ZONG enters the metaverse  */\r\n\r\n    struct Proposal {\r\n        uint id;\r\n        string name;\r\n        // uint amount;\r\n        // address payable recipient;\r\n        uint votes;\r\n        uint end;\r\n        bool executed;\r\n    }\r\n\r\n    mapping(address => bool) public zongTokenHolder;\r\n    mapping(address => mapping(uint => bool)) public votes;\r\n    mapping(uint => Proposal) public Proposals;\r\n\r\n    uint public totalShares;\r\n    uint public zongInCirculation;\r\n    uint public contributionEnd;\r\n    uint public nextProposalId;\r\n    uint public voteTime;\r\n    uint public quorum;\r\n    \r\n    //address public admin;\r\n\r\n    //add back in to constructor - uint contributionTime, uint _voteTime, uint _quorum\r\n    constructor(uint _quorum) { \r\n        require(_quorum > 0 && _quorum < 5, \"Max Contributors reached\");    \r\n        //contributionEnd = block.timestamp + contributionTime;\r\n        //voteTime = _voteTime;\r\n        quorum = _quorum;\r\n        //admin = msg.sender;\r\n    }\r\n\r\n    function contribute() payable external {\r\n       // require(block.timestamp < saleEnd, \"Contributions have ended\");     \r\n        zongTokenHolder[msg.sender] = true;\r\n        invest();\r\n        zongInCirculation += msg.value;\r\n    }\r\n\r\n\r\n    function transferZong(uint amount, address to) external {\r\n        require(balances[msg.sender] >= amount);\r\n        balances[msg.sender] -= amount;\r\n        balances[to] += amount;\r\n        zongTokenHolder[to] = true;\r\n    }\r\n\r\n    function createProposal(string memory name /*uint amount, address payable recipient*/) public {\r\n        //require(availableFunds >= amount);\r\n        Proposals[nextProposalId] = Proposal(\r\n            nextProposalId,\r\n            name,\r\n            // amount,\r\n            // recipient,\r\n            0,\r\n            voteTime = block.timestamp,\r\n            false\r\n        );\r\n        //availableFunds -= amount;\r\n        nextProposalId ++;\r\n    }\r\n\r\n    function vote(uint proposalId) external {\r\n        Proposal storage proposal = Proposals[proposalId];\r\n        require(votes[msg.sender][proposalId] == false);\r\n        //require(block.timestamp < proposal.end);\r\n\r\n        votes[msg.sender][proposalId] = true;\r\n        proposal.votes += balances[msg.sender];\r\n\r\n    }\r\n\r\n    function hasVoted(uint proposalId) public view returns(bool) {\r\n        if(votes[msg.sender][proposalId]){\r\n            return true;\r\n        }else{\r\n            return false;\r\n        }\r\n    }\r\n\r\n    function executeProposal(uint proposalId) view external {\r\n        Proposal storage proposal = Proposals[proposalId];\r\n        //require(block.timestamp >= proposal.end);\r\n        require(proposal.executed == false);\r\n        proposal.executed == true;\r\n        //require((proposal.votes / totalShares) +100 <= quorum);\r\n        //proposal.recipient.transfer(proposal.amount);\r\n\r\n    }\r\n\r\n    function currentTime() public view returns(uint)  {\r\n        return block.timestamp;\r\n    }\r\n\r\n  \r\n\r\n}\r\n",
  "sourcePath": "C:\\Users\\mgrin\\zongDAO-1\\ZONGDAO\\contracts\\zongDAO.sol",
  "compiler": {
    "name": "solc",
    "version": "0.8.11+commit.d7f03943.Emscripten.clang"
  },
  "schemaVersion": "3.4.4",
  "updatedAt": "2022-04-19T08:31:10.151Z",
  "devdoc": {
    "kind": "dev",
    "methods": {},
    "version": 1
  },
  "userdoc": {
    "kind": "user",
    "methods": {},
    "version": 1
  }
}