{
  "contractName": "zongICO",
  "abi": [
    {
      "inputs": [
        {
          "internalType": "address payable",
          "name": "_deposit",
          "type": "address"
        }
      ],
      "stateMutability": "nonpayable",
      "type": "constructor"
    },
    {
      "anonymous": false,
      "inputs": [
        {
          "indexed": true,
          "internalType": "address",
          "name": "tokenOwner",
          "type": "address"
        },
        {
          "indexed": true,
          "internalType": "address",
          "name": "spender",
          "type": "address"
        },
        {
          "indexed": false,
          "internalType": "uint256",
          "name": "tokens",
          "type": "uint256"
        }
      ],
      "name": "Approval",
      "type": "event"
    },
    {
      "anonymous": false,
      "inputs": [
        {
          "indexed": false,
          "internalType": "address",
          "name": "investor",
          "type": "address"
        },
        {
          "indexed": false,
          "internalType": "uint256",
          "name": "value",
          "type": "uint256"
        },
        {
          "indexed": false,
          "internalType": "uint256",
          "name": "tokens",
          "type": "uint256"
        }
      ],
      "name": "Invest",
      "type": "event"
    },
    {
      "anonymous": false,
      "inputs": [
        {
          "indexed": true,
          "internalType": "address",
          "name": "from",
          "type": "address"
        },
        {
          "indexed": true,
          "internalType": "address",
          "name": "to",
          "type": "address"
        },
        {
          "indexed": false,
          "internalType": "uint256",
          "name": "tokens",
          "type": "uint256"
        }
      ],
      "name": "Transfer",
      "type": "event"
    },
    {
      "inputs": [],
      "name": "admin",
      "outputs": [
        {
          "internalType": "address",
          "name": "",
          "type": "address"
        }
      ],
      "stateMutability": "view",
      "type": "function",
      "constant": true
    },
    {
      "inputs": [
        {
          "internalType": "address",
          "name": "tokenOwner",
          "type": "address"
        },
        {
          "internalType": "address",
          "name": "spender",
          "type": "address"
        }
      ],
      "name": "allowance",
      "outputs": [
        {
          "internalType": "uint256",
          "name": "",
          "type": "uint256"
        }
      ],
      "stateMutability": "view",
      "type": "function",
      "constant": true
    },
    {
      "inputs": [
        {
          "internalType": "address",
          "name": "spender",
          "type": "address"
        },
        {
          "internalType": "uint256",
          "name": "tokens",
          "type": "uint256"
        }
      ],
      "name": "approve",
      "outputs": [
        {
          "internalType": "bool",
          "name": "success",
          "type": "bool"
        }
      ],
      "stateMutability": "nonpayable",
      "type": "function"
    },
    {
      "inputs": [
        {
          "internalType": "address",
          "name": "tokenOwner",
          "type": "address"
        }
      ],
      "name": "balanceOf",
      "outputs": [
        {
          "internalType": "uint256",
          "name": "balance",
          "type": "uint256"
        }
      ],
      "stateMutability": "view",
      "type": "function",
      "constant": true
    },
    {
      "inputs": [
        {
          "internalType": "address",
          "name": "",
          "type": "address"
        }
      ],
      "name": "balances",
      "outputs": [
        {
          "internalType": "uint256",
          "name": "",
          "type": "uint256"
        }
      ],
      "stateMutability": "view",
      "type": "function",
      "constant": true
    },
    {
      "inputs": [],
      "name": "decimals",
      "outputs": [
        {
          "internalType": "uint256",
          "name": "",
          "type": "uint256"
        }
      ],
      "stateMutability": "view",
      "type": "function",
      "constant": true
    },
    {
      "inputs": [],
      "name": "deposit",
      "outputs": [
        {
          "internalType": "address payable",
          "name": "",
          "type": "address"
        }
      ],
      "stateMutability": "view",
      "type": "function",
      "constant": true
    },
    {
      "inputs": [],
      "name": "founder",
      "outputs": [
        {
          "internalType": "address",
          "name": "",
          "type": "address"
        }
      ],
      "stateMutability": "view",
      "type": "function",
      "constant": true
    },
    {
      "inputs": [],
      "name": "hardCap",
      "outputs": [
        {
          "internalType": "uint256",
          "name": "",
          "type": "uint256"
        }
      ],
      "stateMutability": "view",
      "type": "function",
      "constant": true
    },
    {
      "inputs": [],
      "name": "icoState",
      "outputs": [
        {
          "internalType": "enum zongICO.State",
          "name": "",
          "type": "uint8"
        }
      ],
      "stateMutability": "view",
      "type": "function",
      "constant": true
    },
    {
      "inputs": [],
      "name": "maxInvestment",
      "outputs": [
        {
          "internalType": "uint256",
          "name": "",
          "type": "uint256"
        }
      ],
      "stateMutability": "view",
      "type": "function",
      "constant": true
    },
    {
      "inputs": [],
      "name": "minInvestment",
      "outputs": [
        {
          "internalType": "uint256",
          "name": "",
          "type": "uint256"
        }
      ],
      "stateMutability": "view",
      "type": "function",
      "constant": true
    },
    {
      "inputs": [],
      "name": "name",
      "outputs": [
        {
          "internalType": "string",
          "name": "",
          "type": "string"
        }
      ],
      "stateMutability": "view",
      "type": "function",
      "constant": true
    },
    {
      "inputs": [],
      "name": "raisedAmount",
      "outputs": [
        {
          "internalType": "uint256",
          "name": "",
          "type": "uint256"
        }
      ],
      "stateMutability": "view",
      "type": "function",
      "constant": true
    },
    {
      "inputs": [],
      "name": "saleEnd",
      "outputs": [
        {
          "internalType": "uint256",
          "name": "",
          "type": "uint256"
        }
      ],
      "stateMutability": "view",
      "type": "function",
      "constant": true
    },
    {
      "inputs": [],
      "name": "saleStart",
      "outputs": [
        {
          "internalType": "uint256",
          "name": "",
          "type": "uint256"
        }
      ],
      "stateMutability": "view",
      "type": "function",
      "constant": true
    },
    {
      "inputs": [],
      "name": "symbol",
      "outputs": [
        {
          "internalType": "string",
          "name": "",
          "type": "string"
        }
      ],
      "stateMutability": "view",
      "type": "function",
      "constant": true
    },
    {
      "inputs": [],
      "name": "tokenTradeStart",
      "outputs": [
        {
          "internalType": "uint256",
          "name": "",
          "type": "uint256"
        }
      ],
      "stateMutability": "view",
      "type": "function",
      "constant": true
    },
    {
      "inputs": [],
      "name": "totalSupply",
      "outputs": [
        {
          "internalType": "uint256",
          "name": "",
          "type": "uint256"
        }
      ],
      "stateMutability": "view",
      "type": "function",
      "constant": true
    },
    {
      "inputs": [
        {
          "internalType": "address",
          "name": "to",
          "type": "address"
        },
        {
          "internalType": "uint256",
          "name": "tokens",
          "type": "uint256"
        }
      ],
      "name": "transfer",
      "outputs": [
        {
          "internalType": "bool",
          "name": "success",
          "type": "bool"
        }
      ],
      "stateMutability": "nonpayable",
      "type": "function"
    },
    {
      "inputs": [
        {
          "internalType": "address",
          "name": "from",
          "type": "address"
        },
        {
          "internalType": "address",
          "name": "to",
          "type": "address"
        },
        {
          "internalType": "uint256",
          "name": "tokens",
          "type": "uint256"
        }
      ],
      "name": "transferFrom",
      "outputs": [
        {
          "internalType": "bool",
          "name": "success",
          "type": "bool"
        }
      ],
      "stateMutability": "nonpayable",
      "type": "function"
    },
    {
      "stateMutability": "payable",
      "type": "receive",
      "payable": true
    },
    {
      "inputs": [],
      "name": "halt",
      "outputs": [],
      "stateMutability": "nonpayable",
      "type": "function"
    },
    {
      "inputs": [],
      "name": "resume",
      "outputs": [],
      "stateMutability": "nonpayable",
      "type": "function"
    },
    {
      "inputs": [],
      "name": "getCurrentState",
      "outputs": [
        {
          "internalType": "enum zongICO.State",
          "name": "",
          "type": "uint8"
        }
      ],
      "stateMutability": "view",
      "type": "function",
      "constant": true
    },
    {
      "inputs": [],
      "name": "invest",
      "outputs": [
        {
          "internalType": "bool",
          "name": "",
          "type": "bool"
        }
      ],
      "stateMutability": "payable",
      "type": "function",
      "payable": true
    }
  ],
  "bytecode": "0x60806040526040518060400160405280600981526020017f5a6f6e67546f6b656e00000000000000000000000000000000000000000000008152506000908051906020019062000051929190620002a0565b506040518060400160405280600481526020017f5a4f4e4700000000000000000000000000000000000000000000000000000000815250600190805190602001906200009f929190620002a0565b50600060025566038d7ea4c68000600955681043561a8829300000600a5542600c5562093a8042620000d2919062000389565b600d5562093a80600d54620000e8919062000389565b600e55674563918244f40000600f5567016345785d8a00006010553480156200011057600080fd5b5060405162001c7138038062001c71833981810160405281019062000136919062000450565b620f424060038190555033600460006101000a81548173ffffffffffffffffffffffffffffffffffffffff021916908373ffffffffffffffffffffffffffffffffffffffff16021790555060035460056000600460009054906101000a900473ffffffffffffffffffffffffffffffffffffffff1673ffffffffffffffffffffffffffffffffffffffff1673ffffffffffffffffffffffffffffffffffffffff1681526020019081526020016000208190555080600860006101000a81548173ffffffffffffffffffffffffffffffffffffffff021916908373ffffffffffffffffffffffffffffffffffffffff16021790555033600760006101000a81548173ffffffffffffffffffffffffffffffffffffffff021916908373ffffffffffffffffffffffffffffffffffffffff1602179055506000601160006101000a81548160ff0219169083600381111562000294576200029362000482565b5b02179055505062000516565b828054620002ae90620004e0565b90600052602060002090601f016020900481019282620002d257600085556200031e565b82601f10620002ed57805160ff19168380011785556200031e565b828001600101855582156200031e579182015b828111156200031d57825182559160200191906001019062000300565b5b5090506200032d919062000331565b5090565b5b808211156200034c57600081600090555060010162000332565b5090565b6000819050919050565b7f4e487b7100000000000000000000000000000000000000000000000000000000600052601160045260246000fd5b6000620003968262000350565b9150620003a38362000350565b9250827fffffffffffffffffffffffffffffffffffffffffffffffffffffffffffffffff03821115620003db57620003da6200035a565b5b828201905092915050565b600080fd5b600073ffffffffffffffffffffffffffffffffffffffff82169050919050565b60006200041882620003eb565b9050919050565b6200042a816200040b565b81146200043657600080fd5b50565b6000815190506200044a816200041f565b92915050565b600060208284031215620004695762000468620003e6565b5b6000620004798482850162000439565b91505092915050565b7f4e487b7100000000000000000000000000000000000000000000000000000000600052602160045260246000fd5b7f4e487b7100000000000000000000000000000000000000000000000000000000600052602260045260246000fd5b60006002820490506001821680620004f957607f821691505b6020821081141562000510576200050f620004b1565b5b50919050565b61174b80620005266000396000f3fe6080604052600436106101695760003560e01c806370a08231116100d1578063c59ee1dc1161008a578063dd62ed3e11610064578063dd62ed3e14610537578063e8b5e51f14610574578063f851a44014610592578063fb86a404146105bd57610179565b8063c59ee1dc146104b6578063cc9ba583146104e1578063d0e30db01461050c57610179565b806370a08231146103905780638ac2c680146103cd57806395d89b41146103f8578063a9059cbb14610423578063ab0bcc4114610460578063c10b93581461048b57610179565b806327e235e31161012357806327e235e314610290578063313ce567146102cd578063378aa701146102f857806344f38756146103235780634d853ee51461034e5780635ed7ca5b1461037957610179565b80622e13161461017e578063046f7da2146101a957806306fdde03146101c0578063095ea7b3146101eb57806318160ddd1461022857806323b872dd1461025357610179565b36610179576101766105e8565b50005b600080fd5b34801561018a57600080fd5b5061019361082e565b6040516101a091906111d1565b60405180910390f35b3480156101b557600080fd5b506101be610834565b005b3480156101cc57600080fd5b506101d56108bb565b6040516101e29190611285565b60405180910390f35b3480156101f757600080fd5b50610212600480360381019061020d9190611336565b610949565b60405161021f9190611391565b60405180910390f35b34801561023457600080fd5b5061023d610a94565b60405161024a91906111d1565b60405180910390f35b34801561025f57600080fd5b5061027a600480360381019061027591906113ac565b610a9a565b6040516102879190611391565b60405180910390f35b34801561029c57600080fd5b506102b760048036038101906102b291906113ff565b610d20565b6040516102c491906111d1565b60405180910390f35b3480156102d957600080fd5b506102e2610d38565b6040516102ef91906111d1565b60405180910390f35b34801561030457600080fd5b5061030d610d3e565b60405161031a91906114a3565b60405180910390f35b34801561032f57600080fd5b50610338610dc1565b60405161034591906114a3565b60405180910390f35b34801561035a57600080fd5b50610363610dd4565b60405161037091906114cd565b60405180910390f35b34801561038557600080fd5b5061038e610dfa565b005b34801561039c57600080fd5b506103b760048036038101906103b291906113ff565b610e81565b6040516103c491906111d1565b60405180910390f35b3480156103d957600080fd5b506103e2610eca565b6040516103ef91906111d1565b60405180910390f35b34801561040457600080fd5b5061040d610ed0565b60405161041a9190611285565b60405180910390f35b34801561042f57600080fd5b5061044a60048036038101906104459190611336565b610f5e565b6040516104579190611391565b60405180910390f35b34801561046c57600080fd5b506104756110c7565b60405161048291906111d1565b60405180910390f35b34801561049757600080fd5b506104a06110cd565b6040516104ad91906111d1565b60405180910390f35b3480156104c257600080fd5b506104cb6110d3565b6040516104d891906111d1565b60405180910390f35b3480156104ed57600080fd5b506104f66110d9565b60405161050391906111d1565b60405180910390f35b34801561051857600080fd5b506105216110df565b60405161052e9190611509565b60405180910390f35b34801561054357600080fd5b5061055e60048036038101906105599190611524565b611105565b60405161056b91906111d1565b60405180910390f35b61057c6105e8565b6040516105899190611391565b60405180910390f35b34801561059e57600080fd5b506105a761118c565b6040516105b491906114cd565b60405180910390f35b3480156105c957600080fd5b506105d26111b2565b6040516105df91906111d1565b60405180910390f35b60006105f2610d3e565b601160006101000a81548160ff021916908360038111156106165761061561142c565b5b02179055506001600381111561062f5761062e61142c565b5b601160009054906101000a900460ff1660038111156106515761065061142c565b5b1461065b57600080fd5b601054341015801561066f5750600f543411155b61067857600080fd5b34600b600082825461068a9190611593565b92505081905550600a54600b5411156106a257600080fd5b6000600954346106b29190611618565b905080600560003373ffffffffffffffffffffffffffffffffffffffff1673ffffffffffffffffffffffffffffffffffffffff16815260200190815260200160002060008282546107039190611593565b925050819055508060056000600460009054906101000a900473ffffffffffffffffffffffffffffffffffffffff1673ffffffffffffffffffffffffffffffffffffffff1673ffffffffffffffffffffffffffffffffffffffff168152602001908152602001600020600082825461077b9190611649565b92505081905550600860009054906101000a900473ffffffffffffffffffffffffffffffffffffffff1673ffffffffffffffffffffffffffffffffffffffff166108fc349081150290604051600060405180830381858888f193505050501580156107ea573d6000803e3d6000fd5b507f4ae4bd7655e0d350876a23cd90c4227b13db560e34435c6a488150a9c844bf5f33348360405161081e9392919061167d565b60405180910390a1600191505090565b600f5481565b600760009054906101000a900473ffffffffffffffffffffffffffffffffffffffff1673ffffffffffffffffffffffffffffffffffffffff163373ffffffffffffffffffffffffffffffffffffffff161461088e57600080fd5b6001601160006101000a81548160ff021916908360038111156108b4576108b361142c565b5b0217905550565b600080546108c8906116e3565b80601f01602080910402602001604051908101604052809291908181526020018280546108f4906116e3565b80156109415780601f1061091657610100808354040283529160200191610941565b820191906000526020600020905b81548152906001019060200180831161092457829003601f168201915b505050505081565b600081600560003373ffffffffffffffffffffffffffffffffffffffff1673ffffffffffffffffffffffffffffffffffffffff16815260200190815260200160002054101561099757600080fd5b600082116109a457600080fd5b81600660003373ffffffffffffffffffffffffffffffffffffffff1673ffffffffffffffffffffffffffffffffffffffff16815260200190815260200160002060008573ffffffffffffffffffffffffffffffffffffffff1673ffffffffffffffffffffffffffffffffffffffff168152602001908152602001600020819055508273ffffffffffffffffffffffffffffffffffffffff163373ffffffffffffffffffffffffffffffffffffffff167f8c5be1e5ebec7d5bd14f71427d1e84f3dd0314c0f7b2291e5b200ac8c7c3b92584604051610a8291906111d1565b60405180910390a36001905092915050565b60035481565b600081600660008673ffffffffffffffffffffffffffffffffffffffff1673ffffffffffffffffffffffffffffffffffffffff16815260200190815260200160002060008573ffffffffffffffffffffffffffffffffffffffff1673ffffffffffffffffffffffffffffffffffffffff168152602001908152602001600020541015610b2557600080fd5b81600560008673ffffffffffffffffffffffffffffffffffffffff1673ffffffffffffffffffffffffffffffffffffffff168152602001908152602001600020541015610b7157600080fd5b81600560008673ffffffffffffffffffffffffffffffffffffffff1673ffffffffffffffffffffffffffffffffffffffff1681526020019081526020016000206000828254610bc09190611649565b9250508190555081600560008573ffffffffffffffffffffffffffffffffffffffff1673ffffffffffffffffffffffffffffffffffffffff1681526020019081526020016000206000828254610c169190611593565b9250508190555081600660008673ffffffffffffffffffffffffffffffffffffffff1673ffffffffffffffffffffffffffffffffffffffff16815260200190815260200160002060008573ffffffffffffffffffffffffffffffffffffffff1673ffffffffffffffffffffffffffffffffffffffff1681526020019081526020016000206000828254610ca99190611649565b925050819055508273ffffffffffffffffffffffffffffffffffffffff168473ffffffffffffffffffffffffffffffffffffffff167fddf252ad1be2c89b69c2b068fc378daa952ba7f163c4a11628f55a4df523b3ef84604051610d0d91906111d1565b60405180910390a3600190509392505050565b60056020528060005260406000206000915090505481565b60025481565b6000600380811115610d5357610d5261142c565b5b601160009054906101000a900460ff166003811115610d7557610d7461142c565b5b1415610d845760039050610dbe565b600c54421015610d975760009050610dbe565b600c544210158015610dab5750600d544211155b15610db95760019050610dbe565b600290505b90565b601160009054906101000a900460ff1681565b600460009054906101000a900473ffffffffffffffffffffffffffffffffffffffff1681565b600760009054906101000a900473ffffffffffffffffffffffffffffffffffffffff1673ffffffffffffffffffffffffffffffffffffffff163373ffffffffffffffffffffffffffffffffffffffff1614610e5457600080fd5b6003601160006101000a81548160ff02191690836003811115610e7a57610e7961142c565b5b0217905550565b6000600560008373ffffffffffffffffffffffffffffffffffffffff1673ffffffffffffffffffffffffffffffffffffffff168152602001908152602001600020549050919050565b60105481565b60018054610edd906116e3565b80601f0160208091040260200160405190810160405280929190818152602001828054610f09906116e3565b8015610f565780601f10610f2b57610100808354040283529160200191610f56565b820191906000526020600020905b815481529060010190602001808311610f3957829003601f168201915b505050505081565b600081600560003373ffffffffffffffffffffffffffffffffffffffff1673ffffffffffffffffffffffffffffffffffffffff168152602001908152602001600020541015610fac57600080fd5b81600560008573ffffffffffffffffffffffffffffffffffffffff1673ffffffffffffffffffffffffffffffffffffffff1681526020019081526020016000206000828254610ffb9190611593565b9250508190555081600560003373ffffffffffffffffffffffffffffffffffffffff1673ffffffffffffffffffffffffffffffffffffffff16815260200190815260200160002060008282546110519190611649565b925050819055508273ffffffffffffffffffffffffffffffffffffffff163373ffffffffffffffffffffffffffffffffffffffff167fddf252ad1be2c89b69c2b068fc378daa952ba7f163c4a11628f55a4df523b3ef846040516110b591906111d1565b60405180910390a36001905092915050565b600c5481565b600d5481565b600b5481565b600e5481565b600860009054906101000a900473ffffffffffffffffffffffffffffffffffffffff1681565b6000600660008473ffffffffffffffffffffffffffffffffffffffff1673ffffffffffffffffffffffffffffffffffffffff16815260200190815260200160002060008373ffffffffffffffffffffffffffffffffffffffff1673ffffffffffffffffffffffffffffffffffffffff16815260200190815260200160002054905092915050565b600760009054906101000a900473ffffffffffffffffffffffffffffffffffffffff1681565b600a5481565b6000819050919050565b6111cb816111b8565b82525050565b60006020820190506111e660008301846111c2565b92915050565b600081519050919050565b600082825260208201905092915050565b60005b8381101561122657808201518184015260208101905061120b565b83811115611235576000848401525b50505050565b6000601f19601f8301169050919050565b6000611257826111ec565b61126181856111f7565b9350611271818560208601611208565b61127a8161123b565b840191505092915050565b6000602082019050818103600083015261129f818461124c565b905092915050565b600080fd5b600073ffffffffffffffffffffffffffffffffffffffff82169050919050565b60006112d7826112ac565b9050919050565b6112e7816112cc565b81146112f257600080fd5b50565b600081359050611304816112de565b92915050565b611313816111b8565b811461131e57600080fd5b50565b6000813590506113308161130a565b92915050565b6000806040838503121561134d5761134c6112a7565b5b600061135b858286016112f5565b925050602061136c85828601611321565b9150509250929050565b60008115159050919050565b61138b81611376565b82525050565b60006020820190506113a66000830184611382565b92915050565b6000806000606084860312156113c5576113c46112a7565b5b60006113d3868287016112f5565b93505060206113e4868287016112f5565b92505060406113f586828701611321565b9150509250925092565b600060208284031215611415576114146112a7565b5b6000611423848285016112f5565b91505092915050565b7f4e487b7100000000000000000000000000000000000000000000000000000000600052602160045260246000fd5b6004811061146c5761146b61142c565b5b50565b600081905061147d8261145b565b919050565b600061148d8261146f565b9050919050565b61149d81611482565b82525050565b60006020820190506114b86000830184611494565b92915050565b6114c7816112cc565b82525050565b60006020820190506114e260008301846114be565b92915050565b60006114f3826112ac565b9050919050565b611503816114e8565b82525050565b600060208201905061151e60008301846114fa565b92915050565b6000806040838503121561153b5761153a6112a7565b5b6000611549858286016112f5565b925050602061155a858286016112f5565b9150509250929050565b7f4e487b7100000000000000000000000000000000000000000000000000000000600052601160045260246000fd5b600061159e826111b8565b91506115a9836111b8565b9250827fffffffffffffffffffffffffffffffffffffffffffffffffffffffffffffffff038211156115de576115dd611564565b5b828201905092915050565b7f4e487b7100000000000000000000000000000000000000000000000000000000600052601260045260246000fd5b6000611623826111b8565b915061162e836111b8565b92508261163e5761163d6115e9565b5b828204905092915050565b6000611654826111b8565b915061165f836111b8565b92508282101561167257611671611564565b5b828203905092915050565b600060608201905061169260008301866114be565b61169f60208301856111c2565b6116ac60408301846111c2565b949350505050565b7f4e487b7100000000000000000000000000000000000000000000000000000000600052602260045260246000fd5b600060028204905060018216806116fb57607f821691505b6020821081141561170f5761170e6116b4565b5b5091905056fea2646970667358221220ec650f9b6abae61039143c9c153bb785d406b7e189fd63a256510dab4e7ad98e64736f6c634300080b0033",
  "immutableReferences": {},
  "source": "//SPDX-License-Identifier: GPL-3.0\r\n\r\npragma solidity >=0.5.0 <0.9.0;\r\n\r\nimport \"./zongToken.sol\";\r\n\r\ncontract zongICO is zongToken { \r\n\r\n    address public admin;\r\n    address payable public deposit;\r\n    uint tokenPrice = 0.001 ether; //1 eth = 1000 zongtoken\r\n    uint public hardCap = 300 ether;\r\n    uint public raisedAmount;\r\n    uint public saleStart = block.timestamp;\r\n    uint public saleEnd = block.timestamp + 604800;\r\n    uint public tokenTradeStart = saleEnd + 604800;\r\n    uint public maxInvestment = 5 ether;\r\n    uint public minInvestment = 0.1 ether;\r\n\r\n    enum State{beforeStart, running, afterEnd, halted}\r\n    State public icoState;\r\n\r\n    constructor(address payable _deposit){\r\n        deposit = _deposit;\r\n        admin = msg.sender;\r\n        icoState = State.beforeStart;\r\n\r\n    }\r\n\r\n    modifier onlyAdmin(){\r\n        require(msg.sender == admin);\r\n        _;\r\n    }\r\n\r\n    function halt() public onlyAdmin{\r\n        icoState = State.halted;\r\n    }\r\n\r\n    function resume() public onlyAdmin{\r\n        icoState = State.running;\r\n    }\r\n\r\n    // function changeDepositAddress(address payable newDeposit) public onlyAdmin{\r\n    //     deposit = newDeposit;\r\n    // }\r\n\r\n    function getCurrentState() public view returns(State) {\r\n        if(icoState == State.halted){\r\n            return State.halted;\r\n        }else if(block.timestamp < saleStart){\r\n            return State.beforeStart;\r\n        }else if(block.timestamp >= saleStart && block.timestamp <= saleEnd){\r\n            return State.running;\r\n        }else{\r\n            return State.afterEnd;\r\n        }\r\n    }\r\n\r\n    event Invest(address investor, uint value, uint tokens);\r\n\r\n    function invest() payable public returns(bool){\r\n        icoState = getCurrentState();\r\n        require(icoState == State.running);\r\n\r\n        require(msg.value >= minInvestment && msg.value <= maxInvestment);\r\n        raisedAmount += msg.value;\r\n        require(raisedAmount <= hardCap);\r\n\r\n        uint tokens = msg.value/tokenPrice;\r\n\r\n        balances[msg.sender] += tokens;\r\n        balances[founder] -= tokens;\r\n\r\n        deposit.transfer(msg.value);\r\n        emit Invest(msg.sender, msg.value, tokens);\r\n\r\n        return true;        \r\n    }\r\n    \r\n    receive() payable external{\r\n            invest();\r\n        }\r\n\r\n\r\n}",
  "sourcePath": "C:\\Users\\mgrin\\zongDAO-1\\ZONGDAO\\contracts\\zongICO.sol",
  "compiler": {
    "name": "solc",
    "version": "0.8.11+commit.d7f03943.Emscripten.clang"
  },
  "schemaVersion": "3.4.4",
  "updatedAt": "2022-04-19T08:31:15.869Z",
  "networkType": "ethereum",
  "devdoc": {
    "kind": "dev",
    "methods": {},
    "version": 1
  },
  "userdoc": {
    "kind": "user",
    "methods": {},
    "version": 1
  }
}